:020000040800F2
:10000000500B002039020008E327000827250008CC
:10001000E12700082F040008E52E0008000000007A
:10002000000000000000000000000000612B00083C
:100030002905000800000000E5270008632B0008E0
:10004000530200085302000853020008530200083C
:10005000530200085302000853020008530200082C
:10006000530200085302000853020008530200081C
:100070003104000853020008530200083D04000840
:100080004904000853020008530200080000000061
:100090000000000000000000000000005302000803
:1000A00053020008530200085302000853020008DC
:1000B00053020008530200085302000853020008CC
:1000C0005302000853020008530200085D2800088C
:1000D00053020008D92E0008530200080000000057
:1000E00053020008530200085302000800000000F9
:1000F00000000000000000000000000053020008A3
:1001000000000000530200085302000853020008D8
:1001100000000000000000000000000000000000DF
:100120005302000855040008610400085302000847
:100130005302000800000000000000000000000062
:100140000000000000000000000000005302000852
:100150006D040008530200087904000853020008E7
:1001600053020008530200080000000000000000D5
:10017000000000000000000000000000000000007F
:100180000000000053020008000000000000000012
:10019000530200085302000800F002F800F03CF897
:1001A0000AA090E8000C82448344AAF10107DA45D2
:1001B00001D100F031F8AFF2090EBAE80F0013F0E8
:1001C000010F18BFFB1A43F001031847A82E0000C7
:1001D000C82E0000103A24BF78C878C1FAD8520758
:1001E00024BF30C830C144BF04680C6070470000B1
:1001F0000023002400250026103A28BF78C1FBD830
:10020000520728BF30C148BF0B6070471FB502F0CE
:100210001BFF1FBD10B510BD00F0CFF81146FFF752
:10022000F5FF02F071FE00F0EDF803B4FFF7F2FF06
:1002300003BC00F0F5F80000094880470948004772
:10024000FEE7FEE7FEE7FEE7FEE7FEE7FEE7FEE786
:10025000FEE7FEE704480549054A064B70470000E3
:10026000F52B00089901000850050020500B0020D4
:10027000500700205007002053EA020C00F069806C
:100280002DE9F04B4FF00006002B1FBFB3FA83F5AA
:1002900003FA05F424FA05F65E4012BF1643B2FADB
:1002A00082F502FA05F4C5F120051EBF22FA05FC0D
:1002B00044EA0C04203556EA044C4FEA144418BFB3
:1002C000641C4FF000084FF00009904271EB030CE2
:1002D00039D3002919BFB1FA81F701FA07F6B0FA4C
:1002E00080F700FA07F6C7F120071EBF20FA07FCC7
:1002F00046EA0C062037B6FBF4FCA7EB0507103FD7
:1003000007F01F0BCBF120060CFA0BFB2CFA06F6BC
:1003100044BFB3460026202FA4BF5E464FF0000B1B
:100320005BEA060C08BF4FF0010B19EB0B09ABFBA6
:10033000027C48EB0608C01B06FB02CC0BFB03CC7F
:1003400071EB0C01C1E70B46024641464846BDE849
:10035000F08B13B54FF000004FF00001AFF30080B9
:10036000BDE81C4070474FF0000200B513469446AC
:100370009646203922BFA0E80C50A0E80C50B1F1FD
:100380002001BFF4F7AF090728BFA0E80C5048BF11
:100390000CC05DF804EB890028BF40F8042B08BFAF
:1003A000704748BF20F8022B11F0804F18BF00F8AB
:1003B000012B7047704770477047754600F02CF866
:1003C000AE4605006946534620F00700854618B042
:1003D00020B5FFF73FFFBDE820404FF000064FF08B
:1003E00000074FF000084FF0000B21F00701AC466A
:1003F000ACE8C009ACE8C009ACE8C009ACE8C00989
:100400008D46704710B50446AFF300802046BDE826
:100410001040FFF70ABF000000487047F0040020BA
:1004200001491820ABBEFEE7260002007047FEE738
:10043000014800F0E5B8000050020020014800F03B
:10044000DFB8000010030020014800F0D9B8000018
:1004500070030020014800F0D3B80000D003002052
:10046000014800F0CDB80000B0020020014800F0C3
:10047000C7B8000090040020014800F0C1B8000097
:100480003004002001681823CAB2103AB2FBF3F21C
:10049000054B6FF30901032A9B5CC36500D9091D55
:1004A00081650846704700005230000810B50146CB
:1004B00000208B698A6A4FF0C07453B1B3F5005FB6
:1004C00015D072B1012A0CD0022A0AD0032A09D110
:1004D00004E01AB1012A06D0022A03D1C96AC9016F
:1004E00000D5012010BDC96AA142FAD010BD002A72
:1004F000F7D0012AF2D0022AF3D0032AF3D010BD9C
:1005000030B50468256825F480252560046863609B
:100510008368402B036803D099600068C26030BDD7
:100520009A600068C16030BD7047000072B6054D2A
:100530004FF400542146284600F0D6FA642000F01B
:10054000D1F9F7E7000802402DE9F0410446876D34
:1005500000F0D8FA064694F835000025022806D0A7
:100560008020606584F834500120BDE8F081206867
:10057000016821F0160101602068416921F08001C5
:100580004161206C08B9A06C20B12068016821F09D
:10059000080101602068016821F0010101600CE0A0
:1005A00000F0B0FA801B052807D9202060650320E1
:1005B00084F8350084F83450D7E720680068C00715
:1005C000EED194F85C103F208840B860012084F898
:1005D000350084F834500020C7E790F83510022920
:1005E00003D08021416501207047052180F8351036
:1005F0000068016821F001010160002070470000DF
:100600002DE9F84304464FF00009CDF80090634807
:100610004FF41651A56D0068B0FBF1F72E6894F801
:100620005C10082000FA01F131420FD021680A68FD
:1006300052070BD50A6822F004020A6094F85C1095
:100640008840A860606D40F00100606594F85C101F
:100650004FF0010808FA01F0304208D021684969DA
:10066000090604D5A860606D40F00200606594F84A
:100670005C1004208840304208D02168096889074E
:1006800004D5A860606D40F00400606594F85C10CB
:1006900010208840304218D021680968090714D515
:1006A000A86020680168490304D50068000308D5E4
:1006B000A16C07E00168C90503D4016821F00801B5
:1006C0000160216C09B12046884794F85C10202015
:1006D0008840304231D021680968C9062DD5A8600C
:1006E00094F8350005282068016806D0490347D5ED
:1006F000006800031DD4616C1CE021F0160101604C
:100700002068416921F080014161206C08B9A06C2A
:1007100020B12068016821F00801016094F85C10A4
:100720003F208840A86084F8358084F83490216D9B
:100730001FE0E16B09B120468847606D00282BD08F
:10074000606DC00714D0052084F83500206801686A
:1007500021F0010101600098401C0090B84203D8CC
:1007600020680068C007F6D184F8358084F834909A
:10077000E16C002910D001B02046BDE8F0430847E5
:100780000168C905D5D4016821F01001016084F821
:10079000358084F83490CCE7BDE8F8831C00002055
:1007A0002DE9F041044600F0ADF906465CB10220A7
:1007B00084F83500002584F834502068016821F061
:1007C000010101600DE00120BDE8F08100F09AF91F
:1007D000801B052805D920206065032084F835009A
:1007E000F2E720680068C007F0D12268116820484D
:1007F0000140D4E901031843D4E9033633431843D5
:1008000063691843A3691843E3691843236A1843CB
:100810000843616A042903D1D4E90B13194308433F
:10082000106020684069666A20F0070130460E4378
:10083000012704280CD1A06A0643E06A40B1204693
:10084000FFF734FE20B14020606584F83570BAE7C8
:10085000206846612046FFF715FE94F85C203F2192
:1008600091408160656584F835700020ACE7000038
:100870003F8010F02DE9F0410446866D90F8340079
:10088000002501280DD0012084F8340094F835703B
:100890000020012F07D084F8340002252846BDE847
:1008A000F0810220FBE7022784F83570606520465E
:1008B000FFF726FE94F85C103F208840B060206867
:1008C000016841F016010160206C20B120680168C8
:1008D00041F0080101602068016841F001010160F8
:1008E000DCE7000070B5044600F00CF90546601C1A
:1008F00002D004480078044400F004F9401BA042F0
:10090000FAD370BD100000202DE9F84FDFF8B8A130
:100910000022012403254FF00F090AF1040BAAF16C
:10092000040E00BF0B6804FA02F63340B34273D1E1
:100930000F7907F00307012F01D0022F16D1876826
:100940004FEA420805FA08FC27EA0C07D1F80CC068
:100950000CFA08FC4CEA070CC0F808C04768B7431B
:100960000E79C6F3001696403E4346600E79F64374
:10097000B6070DD0C768560005FA06FC27EA0C0733
:10098000D1F808C00CFA06FC4CEA070CC0F80CC001
:100990000E7906F00306022E10D1D60800EB860869
:1009A000D8F8206057074FEAD76C09FA0CF7BE4316
:1009B0000F6907FA0CF73743C8F8207006684FEA4A
:1009C000420C05FA0CF7BE430F7907F0030707FA4C
:1009D0000CF7374307604E6816F4403F6DD03B4E2E
:1009E000376847F480473760366822F0030706F41B
:1009F00080460096364E07EB060CDCF80868970731
:100A00003F0F09FA07F826EA0806DFF8C8804045D4
:100A100003D14FF000081EE04FE0DFF8BC804045F6
:100A200002D14FF0010816E0DFF8B080404502D156
:100A30004FF002080FE0DFF8A880404502D14FF0E8
:100A4000030808E0DFF89C80404502D14FF004081D
:100A500001E04FF0070808FA07F848EA0608CCF862
:100A60000888DAF800605746D1F804C09E435FEA70
:100A7000CC2C00D51E433E60DBF800605F46D1F809
:100A800004C09E435FEA8C2C00D51E433E60DEF816
:100A900000607746D1F804C09E435FEA8C3C00D5E5
:100AA0001E433E60084F083F3E68D1F804C09E4395
:100AB0005FEACC3C00D51E433E60521C102AFFF476
:100AC00031AFBDE8F88F0000083C014044380240D7
:100AD00000300140000002400004024000080240D3
:100AE000000C024000100240426921EA02030A4061
:100AF00043EA0241816170470AB18161704709048C
:100B0000FBE70000014880687047000010000020EB
:100B100070B5040025D094F83D00002520B984F874
:100B20003C50204600F0B8F8242084F83D002068AE
:100B3000016821F0010101602068016841F4004171
:100B400001602068016821F40041016000F0D0FAE2
:100B50004D4A6168914201D84C4900E04C498842B5
:100B600001D2012070BD4B492368B0FBF1F15E68F2
:100B700026F03F060E435E606368934206D94FF449
:100B8000967359434FF47A73B1FBF3F12368491C10
:100B90001E6A26F03F06314319626168914210D8FF
:100BA0004900401EB0FBF1F2521CC2F30B02042AB2
:100BB00001D2042022E0B0FBF1F0401CC0F30B0096
:100BC0001CE0A268F2B301EBC10303EB0116431E64
:100BD000B3FBF6F35B1C43F480431B0549D092B38F
:100BE00001EBC10202EB0111401EB0FBF1F0401C11
:100BF000C0F30B0040F4804040F400402168CA6913
:100C00004CF6FF739A431043C861D4E907100143BF
:100C10002068026822F0C00211430160D4E9030198
:100C200001432068826848F2FF339A431143816090
:100C3000D4E9050108432168CA6822F0FF02104385
:100C4000C86001E00EE016E02068016841F0010193
:100C500001602564202084F83D00256384F83E501F
:100C6000002070BD01EB4106431EB3FBF6F35B1C95
:100C7000B3E70120C2E701EB4101401EB0FBF1F0F8
:100C8000401CC0F30B00B7E7A086010080841E0063
:100C900000093D0040420F0070B586B006461421A1
:100CA0006846FFF760FB1E493068884236D11D4810
:100CB0000025016841F0020101600068694600F00A
:100CC00002000590C02000901220CDE9010503200C
:100CD0000390042004901448FFF716FE11481030CA
:100CE000016841F4001101600068114C00F400102B
:100CF00005900E48C4E900054020C4E90205000142
:100D0000C4E90405A561E561256220466562FFF737
:100D100047FD08B1FFF70AFC7463A66306B070BD17
:100D20000054004030380240000402402860024075
:100D300050020020024881680278114481607047A7
:100D4000100000200B4810B5016841F400710160EB
:100D5000016841F480610160016841F480710160C3
:100D6000032000F06FF80F2000F006F800F024F8E0
:100D7000002010BD003C024070B50D4D04464FF4FC
:100D80007A712878B1FBF0F00A490968B1FBF0F0FC
:100D900001F0BEF848B9102C07D200222146501E9F
:100DA00000F030F800206C6070BD012070BD0000C4
:100DB000100000201C0000200A4808B5016841F41A
:100DC00080410160006800F4804000900548001FE9
:100DD000016841F080510160006800F0805000908F
:100DE00008BD000044380240002809DB00F01F0263
:100DF000012191404009800000F1E020C0F800117D
:100E000070470000F0B40E4B1B680C46C3F302237E
:100E1000C3F10705042D00D90425191D072901D2A6
:100E2000002300E0DB1E012606FA05F1491E2140E1
:100E300099409E40761E16403143F0BC02F053B8F4
:100E40000CED00E0064900F0070208684FF6FF03CA
:100E5000184040EA0220034A10430860704700002F
:100E60000CED00E00000FA052DE9F84304460068A7
:100E70004FF00109C1074FF0000601D1400729D505
:100E8000DFF82081C8F86860FFF73CFE0746464D52
:100E900005E000BFFFF736FEC01B022859D82868BE
:100EA0000001F7D4A068217B800140EA01706168ED
:100EB00008433D4984310860C8F86890FFF722FE76
:100EC000074604E0FFF71EFEC01B022841D8286831
:100ED0000001F7D52078800752D5334840300168AB
:100EE00041F0805101600068304D00F0805000906A
:100EF000286840F480702860FFF704FE074604E08D
:100F0000FFF700FEC01B022823D82868C005F7D5CC
:100F1000254D7035286810F4407020D0218A01F4E6
:100F2000407181421BD02868214920F44070C1F8EB
:100F300000900E6028602868C00710D0FFF7E2FD1F
:100F4000064641F2883707E0FFF7DCFD801BB84218
:100F500002D90320BDE8F88328688007F4D5216909
:100F60001148C1F301220830032A12D0016821F48C
:100F7000F81101602868218AC1F30B010843286039
:100F80002078000703D50B49207DC1F8E00100203F
:100F9000E0E70268084B22F4F81219400A430260A5
:100FA000E8E70000000047420038024000700040BF
:100FB000400E474200104742FFFCFF0F2DE9F0476B
:100FC0000E46050065D0DFF81481D8F80000F7B2AE
:100FD00000F00700B04207D288F80070D8F800008F
:100FE00000F00700B04254D128683D4C810712D56B
:100FF000400703D5206840F4E050206028780007BF
:1010000003D5206840F4604020602068A96820F083
:10101000F000084320602878C0072DD03049686868
:101020000839012812D0022813D0032811D00968EA
:10103000890700292DDA216821F00301014321608D
:10104000FFF760FD814641F2883A0EE009688903A6
:10105000EFE709688901ECE7FFF754FDA0EB090110
:10106000514502D90320BDE8F0872068696800F087
:101070000C00B0EB810FEFD1D8F80010404601F022
:101080000701B14207D90770006800F00700B042BD
:1010900001D00120E7E72878400705D52068E968F6
:1010A00020F4E050084320602878000706D5206827
:1010B000296920F4604040EAC100206000F038F85F
:1010C0002168084AC1F30311515CC8400649086011
:1010D00006480068FFF750FE0020C4E7003C0240CD
:1010E000083802405A3000081C000020140000207C
:1010F0000448054900680968044AC1F38221515C2B
:10110000C84070471C000020083802406A300008C0
:101110000448054900680968044AC1F34231515C3A
:10112000C84070471C000020083802406A300008A0
:10113000154810B5006810F00C02144813D014497B
:10114000042A0FD0082A0ED10F4C241F22682368CE
:1011500002F03F025B0207D52068C0F38810A0FBB5
:10116000010106E0084610BD2168C1F38811A1FB0A
:1011700000010023FFF780F82168C1F30141491CF9
:101180004900B0FBF1F010BD083802400024F40023
:1011900040787D012DE9F84F04006ED02078DFF80B
:1011A0004C93C007A9F104054AD009F10400016875
:1011B000C1F38101012908D00068C0F38100022831
:1011C0000AD1D9F80000400206D52868800337D537
:1011D00060680028E1D033E06068B0F5803F10D04F
:1011E000B0F5A02F286810D020F48030286028683F
:1011F00020F4802028606068A8B1FFF783FC0646D1
:101200000DE0286840F48030F4E740F48020286046
:10121000F7E700BFFFF776FC801B642873D82868C7
:101220008003F7D50CE0FFF76DFC064605E000BF34
:10123000FFF768FC801B6428F0D828688003F7D487
:101240002078DFF8AC8280074FF0000A3ED5A7482F
:10125000001D016811F00C0F08D00068C0F3810078
:1012600002280BD1D9F80000400207D42868800773
:1012700016D5E068012800D112E033E1E068B8B18A
:101280000120C8F80000FFF73DFC064605E000BF5E
:10129000FFF738FC801B0228C0D828688007F7D5E4
:1012A0002868216920F0F80040EAC10028600DE0BC
:1012B000C8F800A0FFF726FC064604E0FFF722FC72
:1012C000801B02281FD828688007F7D420780007E1
:1012D00022D5864F87486169703771B1012101605D
:1012E000FFF710FC064604E0FFF70CFC801B022809
:1012F00009D838688007F7D50EE0C0F800A0FFF7DE
:1013000001FC064605E082E0FFF7FCFB801B02289B
:101310007DD838688007F7D42078400768D5DFF893
:10132000CCB100270BF13C0BDBF80000C0000BD464
:10133000DBF8001041F08051CBF80010DBF8000022
:10134000012700F0805000906B4E3068C00510D42B
:10135000306840F480703060FFF7D4FB009005E007
:10136000FFF7D0FB0099401A022850D83068C0051A
:10137000F6D55E4EA0686C3601280FD0052830687F
:1013800010D020F001003060306820F004003060A0
:10139000A068B8B1FFF7B6FB00900FE0306840F0EE
:1013A0000100F4E740F004003060F7E7FFF7AAFB24
:1013B0000099411A41F28830814266D8306880072E
:1013C000F4D50EE0FFF79EFB009007E0FFF79AFBD5
:1013D0000099411A41F28830814256D8306880071E
:1013E000F4D42FB1DBF8001021F08051CBF80010BD
:1013F000A069C8B33D49091D0968C1F381010229EB
:101400004AD00228504607D0C8F8600000E03CE00F
:10141000FFF778FB04463BE04746C8F86000FFF75B
:1014200071FB064605E000BFFFF76CFB801B02283E
:101430002BD828688001F7D4D4E907010843A16AB2
:101440002E4A490802EB0141626A41EA82110843CF
:1014500094F82C1040EA0161C9F8001001203866A8
:10146000FFF750FB044606E03EE000BFFFF74AFBF3
:10147000001B022809D828688001F7D534E000BF96
:10148000FFF740FB001B022802D90320BDE8F88FBC
:1014900028688001F4D427E00128F7D0D9F80000AB
:1014A000E26900F4800191421CD1226A00F03F0100
:1014B000914217D147F6C071626A0140B1EB821FB9
:1014C00010D1A26A4FF0FF3300F4403103EB520217
:1014D000B1EB024F06D194F82C1000F07060B0EB25
:1014E000016F01D00120D1E70020CFE7043802408E
:1014F00000004742800E4742007000400000FFFF9E
:1015000010B5040002D0607F10B106E0012010BDCC
:1015100000202077204600F041F802206077206804
:10152000C168C943C90632D5CA2141622168532026
:101530004862204601F058F920BB20688168164AAD
:10154000114081602168886862681043D4E90423EF
:101550001A43104388602168E068086120680169C7
:10156000228941EA02410161204601F061F948B94E
:1015700021680A6C22F480220A6421680A6CA3693B
:101580001A430A642268FF21516208B110BD00208D
:101590000121617710BD0000BFFF8FFF10B586B03D
:1015A000044618216846FEF7DEFE09492068884295
:1015B0000CD102200090074804906846FFF754FCC5
:1015C00008B1FEF7B3FF04490120086006B010BD62
:1015D00000280040000319003C0E474270B5044645
:1015E0000B482168C860FFF78DFA05464FF47A76FC
:1015F00007E000BFFFF786FA401BB04201D9032085
:1016000070BD2068C0688006F4D5002070BD000061
:101610005F3F01007047000038B5016804464A6822
:101620008868C043430606D5C30704D1D3435B068D
:1016300001D4216C05E0830708D4D3431B0605D4ED
:10164000616C01B02046BDE830400847830603D5F1
:10165000430601D5C30551D4D3439B064ED443065C
:101660000AD494F85130032B49D0636D43F004033E
:101670006365CB688B680093830609D4636D43F080
:10168000010363658B6800930B6823F040030B60D4
:10169000C00506D4606D40F0080060652068806871
:1016A0000090606D002829D02068416821F0E00199
:1016B0004160012084F85100900701D4D00722D066
:1016C0002068416821F003014160114DE06C40B198
:1016D0000565E06CFEF781FF18B1606D40F04000D9
:1016E0006065A06C002809D00565A06CFEF775FF49
:1016F000002803D0606D40F04000606538BDC868C8
:101700008868009038BD2046FFF784FF38BD000090
:101710006928000870B5040009D0606A002540B14E
:1017200025616561A56294F8510040B10CE001208B
:1017300070BD6068B0F5827FF4D0E561F2E784F8AF
:101740005050204600F044F8022084F851002068F0
:10175000016821F040010160A088218900F48270B5
:1017600001F404410843A18901F400610843217C8C
:1017700001F002010843217D01F001010843218BA2
:1017800001F400710843217F01F03801084394F807
:10179000201001F080010843218D01F4005108431D
:1017A00021680860A069042101EA104094F824101F
:1017B00001F010010843216848602068C16921F4E4
:1017C0000061C1616565012084F85100002070BD91
:1017D0002DE9F04F87B0054614216846FEF7C3FD9A
:1017E000A148A04B1438D5F800C00024DFF8789247
:1017F00002210322402607154FF0050B9C4544D1DA
:10180000D9F800C04CF4805CC9F800C0D9F80030A9
:1018100003F480530593036843F0010303600068F9
:1018200000F001000590A0208DE81300CDE9032B06
:1018300069468E48FFF768F8DFF838828C494046E1
:10184000C8F800103105C8F80410C0E90264C0E906
:101850000474C8F81840C8F81C40C8F82040C8F8FC
:101860002440FEF79DFF08B1FEF760FEC5F84880F2
:10187000002211462320C8F83850FFF7C3FA23206E
:10188000FFF7B2FA07B0BDE8F08FDFF8EC81DFF8C0
:10189000D8A17A4BAAF1040AC44538D1DAF80080FD
:1018A00048F48048CAF80080DAF800C00CF4804C94
:1018B000CDF814C0D0F800C04CF0020CC0F800C045
:1018C000006800F0020005904FF488408DE8130096
:1018D000CDE9032B69461846FFF716F8DFF8A48117
:1018E0006749404688E85200C0E90347C8F81440F9
:1018F000C8F81840C8F81C40C8F82040C8F8244070
:10190000A7E000BFC5F84880C8F83850BAE7DFF84C
:1019100078814FF0060BC44543D1DAF8008048F4D3
:101920000048CAF80080DAF800C00CF4004CCDF88A
:1019300014C0D0F800C04CF0020CC0F800C0006821
:10194000029400F0020005904FF48050CDE90001B0
:101950000720CDE903208846914669469A461846F5
:10196000FEF7D2FF1020CDE900080DF10808694606
:1019700088E8100A5046FEF7C7FFDFF8108140499B
:101980004046183188E85200C0E90347C8F81440BF
:10199000C8F81840C8F81C40C8F82040C8F82440CF
:1019A00057E0DFF8EC80C445B0D1D9F8008048F4A6
:1019B0000058C9F80080D9F800C00CF4005CCDF8DC
:1019C00014C0D0F800C04CF0020CC0F800C0D0F831
:1019D00000C00CF0020CCDF814C0D0F800C04CF0E0
:1019E000010CC0F800C000688A4600F001000590B4
:1019F0004FF40050CDE9000ACDE902429146D846A5
:101A00006946CDF810B01846FEF77EFF4FF400602F
:101A1000CDE9000ACDE902496946CDF810801348A6
:101A2000FEF772FF1249DFF86C8018394046C8F89B
:101A300000104FF00061C8F80410C0E90264C0E96A
:101A40000474C8F81840C8F81C40C8F82040C8F80A
:101A50002440FEF7A5FE00283FF454AFFEF766FDD4
:101A600050E70000003001404438024000000240CE
:101A700040640240B00200200038004000040240F0
:101A80007060024010030020003C00407003002002
:101A900000340140D003002070B5044690F8510096
:101AA000012829D1A068042318B96568B5F5827F9B
:101AB00017D0F9B1F2B194F85050012D1CD0012586
:101AC00084F8505084F8513000256565A163A287E1
:101AD000E28725646564A586E586B0F5004F0DD0E4
:101AE00016E084F851302046BDE8704013460A469F
:101AF00000F01CB9012070BD022070BD2068016893
:101B000021F0400101602068016821F480410160FA
:101B1000E16C17480864E16C1648C863E16C16482C
:101B2000C864E06C0565E38F2168A26B0C31E06C42
:101B3000FEF7A0FE30B1606D40F01000606584F8E3
:101B40005050D7E720680168490603D4016841F086
:101B50004001016084F850502068416841F0200144
:101B600041602068416841F001014160002070BD82
:101B70009B280008B92800087928000810B5FF2321
:101B800004220AA10B4800F07DFC0B48FF230B49FF
:101B9000808882B2074800F075FCFF23BDE8104042
:101BA000022207A1034800F06DBC00007370692099
:101BB000000000000802002000000020200000209B
:101BC0000D0A000070472DE9F84F984616468A46E0
:101BD0000446FEF797FF814694F8510001281ED174
:101BE000BAF1000F73D0002E71D094F85000012884
:101BF00015D0012784F85070032084F85100002587
:101C00006565C4F830A0A686E686A563A587E58746
:101C100065642564A068B0F5004F03D00CE0022095
:101C2000BDE8F88F2068016821F04001016020685C
:101C3000016841F48041016020680168490603D4CD
:101C4000016841F040010160E068B0F5006F606834
:101C500003D048B3012E27D047E008B1012E1FD191
:101C6000206B21680088C86006E0206881688907C9
:101C700009D5216B0988C160206B801C2063E08E30
:101C8000401EE0860CE0FEF73DFFA0EB0901414558
:101C900003D3B8F1FF3F03D035E0B8F1000F32D0E5
:101CA000E08E0028E1D123E0206B216800780873E2
:101CB00006E02068816889070AD5216B09780173DD
:101CC000206B401C2063E08E401EE0860DE02BE080
:101CD000FEF718FFA0EB0901414503D3B8F1FF3F20
:101CE00003D010E0B8F1000F0DD0E08E0028E0D155
:101CF0004A464146204600F0A1FE08B1202060651A
:101D0000A06830B109E084F8517084F85050032085
:101D100086E72068C1688068009084F8517004F8F4
:101D2000505F60680028F3D0012079E770B5044661
:101D300090F851006568012806D0B5F5827F3AD148
:101D4000A568A5BB042836D191B38AB383B394F8B0
:101D5000500001282FD0012084F8500094F8510041
:101D6000042802D0052084F8510000256565216310
:101D7000A386E386A263A387E3872564656494F85A
:101D80005100042819D0E16C274808642748E16C09
:101D9000C863E16C2648C864E06C0565E38F216880
:101DA000A26B0C31E06CFEF765FD00BB0AE002E0BF
:101DB000FFE7012070BD022070BDE16C1D48086482
:101DC0001D48E4E72068416841F001014160A06CD2
:101DD0000564A06CC563A06CC564A06C0565E38E4A
:101DE0002268216B0C32A06CFEF744FD30B1606DAF
:101DF00040F01000606584F85050DAE72068016810
:101E0000490603D4016841F04001016084F8505054
:101E10002068416841F0200141602068416841F03C
:101E200002014160002070BDAF280008872900082A
:101E3000792800089B280008B928000870B50446D6
:101E400090F8510001281CD1C9B1C2B194F85000DA
:101E5000012816D0012084F85000032084F8510096
:101E6000002565652163A286E286A5636564256415
:101E7000A587E587A068B0F5004F04D00DE00120EC
:101E800070BD022070BD2068016821F04001016032
:101E90002068016841F480410160A16C1748086422
:101EA000A16C1748C863A16C1648C864A06C05658E
:101EB000E38E2268216B0C32A06CFEF7DBFC30B1A4
:101EC000606D40F01000606584F85050D7E72068DE
:101ED0000168490603D4016841F04001016084F8BB
:101EE00050502068416841F02001416020684168FD
:101EF00041F002014160002070BD0000A5280008EB
:101F000023290008792800087047704770477047F8
:101F100010B5401EB0F1807F01D3012010BD4FF0FD
:101F2000E02460610F21601700F0DDFF0020A06158
:101F300007202061002010BD70477047F8B5016888
:101F400004460868CA684B6910F00F0F4FF000058F
:101F500059D003F0010602F49077374365D0C107EA
:101F600005D0D10503D5616C41F0010161644107E1
:101F700005D5D90703D0616C41F002016164810786
:101F800005D5D90703D0616C41F0040161640107F4
:101F900007D502F02001314303D0616C41F0080104
:101FA0006164616C00293AD0800604D5900602D5A0
:101FB000204600F056FE20684069616CC0F3801036
:101FC000090700D460B3204600F024FE2068406971
:101FD000400621D52068143050E8001F21F0400150
:101FE00040E80012002AF5D1E06BA8B16E49016506
:101FF000E06BFEF7F2FA002811D0E06B016D01B042
:10200000BDE8F040084783060FD593060DD520465E
:10201000BDE8F84000F025BE2046FFF78EFFF8BD72
:102020002046FFF78AFF6564F8BD266B2023012E4A
:102030007DD1C6067BD5D60679D50868486800905C
:1020400048694FF00206400641D5E16B08684068D8
:102050000004000CE8D0A28D8242E5D9E085C86971
:10206000B0F5807F2DD020680C3050E8001F21F49F
:10207000807140E80012002AF5D12068143050E841
:10208000001F21F0010140E80012002AF5D120686C
:10209000143050E8001F21F0400140E80012002AEF
:1020A000F5D184F84230256320680C3050E8001FD9
:1020B00021F0100140E80012002AF5D1E06BFEF794
:1020C00043FA6663A08DE18D401A81B22AE0A08DAB
:1020D000E18D401A81B2E08D0028A5D00029A3D05F
:1020E00022680C3252E8000F20F4907042E800079A
:1020F000002FF5D12068143050E8002F22F00102A3
:1021000040E80027002FF5D184F84230256320688D
:102110000C3050E8002F22F0100240E80023002B82
:10212000F5D166632046FFF707FFF8BDFFE7050618
:102130002BD5150629D594F841002128F5D1A068A2
:10214000B0F5805F01D12069B0B1206A411C2162E5
:10215000216800784860E08C401E0004000CE08498
:10216000E3D12068C16821F08001C1602068C168A6
:1021700041F04001C160D8E7206A0088C0F3080040
:102180004860206A801C2062E5E74006CDD55006F5
:10219000CBD5CA68204622F04002CA6084F841309C
:1021A00000F0C0F9C1E70000052C000870B504007C
:1021B00004D094F84100002510B106E0012070BD64
:1021C00084F84050204600F023F8242084F8410091
:1021D0002068C16821F40051C160204600F0A2FDD2
:1021E0002068016921F4904101612068416921F072
:1021F0002A0141612068C16841F40051C1606564F1
:10220000202084F8410084F842006563002070BDFE
:102210002DE9F04186B0064614216846FEF7A3F882
:102220002F493068884257D12E480024016841F078
:1022300010010160006800F0100005902948143872
:10224000016841F0010101600068694600F0010089
:1022500005904FF4C06000900220CDE901040320F6
:102260000390072004902048FEF74EFB204D1F48A6
:102270004FF00067E5E8020740204FF48068A5E8CA
:1022800011011B4845F81449AC61EC612C626C6289
:10229000FEF786FA08B1FEF749F9B563AE63134855
:1022A000144D30382860C5E90174C5E903486C61F4
:1022B000AC61EC612C6228466C62FEF771FA08B1E1
:1022C000FEF734F9F563002211462520AE63FEF7D0
:1022D00099FD2520FEF788FD06B0BDE8F0810000DD
:1022E000001001404438024000000240B86402403F
:1022F000300400209004002090F84230202B01D0C0
:102300000220704721B11AB10023036300F090BD91
:1023100001207047F8B5544C544E607838B120789D
:102320004FF6FF75012863D003286CD092E04E4D24
:102330004F4F0835287814280AD015281CD020289B
:1023400030D020706A78012062606070494986E070
:10235000494C012211462046FEF7CEFB0221491CC2
:10236000B942FCDB4049032208314448FFF7C4FF6F
:1023700000220121204611E0002240213046FEF7D4
:10238000BBFB0221491CB942FCDB3749032208315F
:102390003A48FFF7B1FF012240213046BDE8F8403E
:1023A000FEF7AABB002210213046FEF7A5FB687895
:1023B0006060A878FF2340F080008DF800002D4871
:1023C000012269468830FFF7FEFBA088294982B2C6
:1023D00001F18800FFF760FB2349032208312748F9
:1023E000FFF78AFF012210213046FEF785FBF8BD7A
:1023F000002210213046FEF77FFBA0881D4982B2E3
:1024000001F1880012E0002210213046FEF774FB33
:1024100018492B46012201F18800FFF7D4FBA08860
:102420001449401E82B2491C01F18700FFF706FDE6
:10243000A0882B4682B20F49104800F023F82B46A3
:1024400002220FA10D4800F01DF801221021304694
:10245000FEF752FB00200449032260700831BDE8FA
:10246000F8400648FFF748BF000000200000024087
:10247000A086010020000020000402400802002085
:102480000D0A00002DE9F843044690F841009846F3
:1024900016460D46202802D00220BDE8F88385B1FB
:1024A0007EB100206064212084F84100FEF72AFB01
:1024B000A6848146E684A0682027B0F5805F02D01C
:1024C00003E00120E9E7206910B12E4600250EE067
:1024D00000260CE08021204600F0C5FCA8B9C6B15A
:1024E00016F8010B21684860E08C401EE084E08C07
:1024F0004B464FF00002CDF800800028EAD14FF0A3
:102500004001204600F0AFFC40B184F84170032048
:10251000C3E735F8020BC0F30800E3E784F8417025
:102520000020BAE77047FEE7254808B5016841F486
:1025300080010160016801F480010091016841F4AB
:10254000001101600068002200F4001000901146A4
:102550000C20FEF757FC0C20FEF746FC002211462B
:102560000F20FEF74FFC0F20FEF73EFC0022114625
:102570001020FEF747FC1020FEF736FC0022114623
:102580003920FEF73FFC3920FEF72EFC00221146D1
:102590003A20FEF737FC3A20FEF726FC00221146CF
:1025A0004420FEF72FFC4420FEF71EFC00221146BB
:1025B0004620FEF727FCBDE808404620FEF714BC85
:1025C000303802402DE9F04387B014216846FDF70A
:1025D000CAFE31480026016841F00401016001682B
:1025E00001F004010591016841F08001016001687A
:1025F00001F080010591016841F00101016001686D
:1026000001F001010591016841F0020101600068DB
:10261000224F00F002004FF40054059000222146A2
:102620003846FEF769FADFF8788000221F2140461D
:10263000FEF762FA012240214046FEF75DFADFF81C
:102640006490002207214846FEF756FA009401AA3A
:102650000124022582E8700069463846FEF754F9E5
:102660001F2003278DE8B10069464046FEF74CF96C
:102670004020009001AA112082E8C100694640462E
:10268000FEF742F907208DE8B10069464846FEF79B
:102690003BF907B0BDE8F083303802400008024043
:1026A00000000240000402400C4810B50A490160D5
:1026B0000B49416000214FF480428160C0E9031260
:1026C00041618161C1610162FEF722FA002801D0F7
:1026D000FDF72CFF10BD0000005400403400002026
:1026E000A0860100104810B50E4901604FF48271B8
:1026F00041604FF4004181600021C1604FF40072DD
:102700000161C0E905122822C0E907214162816206
:102710000A21C162FEF7FEFF002801D0FDF706FF87
:1027200010BD000000300140A80000200D4810B589
:102730000B490160002141608160C1604FF400726B
:102740000161C0E905120162416281620A21C16230
:10275000FEF7E0FF002801D0FDF7E8FE10BD000005
:1027600000380040000100200D4810B50B49016001
:10277000002141608160C1604FF400720161C0E9D5
:1027800005120162416281620A21C162FEF7C2FF45
:10279000002801D0FDF7CAFE10BD0000003C00403B
:1027A000580100200D4810B50B490160002141601F
:1027B0008160C1604FF400720161C0E905120162DD
:1027C000416281620A21C162FEF7A4FF002801D0A4
:1027D000FDF7ACFE10BD000000340140B001002048
:1027E000FEE7FEE7704700002DE9F041044600686F
:1027F0000025C168490618D4C16841F08001C16054
:10280000FEF780F906464FF47A78042707E000BF08
:10281000FEF778F9801B404501D9677701252068CC
:10282000C068400601D4002DF2D02846BDE8F081F2
:1028300070B5044600680025C16821F08001C160C0
:1028400020688068800606D42046FEF7C7FE10B1D7
:10285000042060770125284670BD00000148FEF77E
:10286000DBBE0000A800002010B5806B0021C187EE
:10287000C186FEF7CFFE10BD10B5806B01684A68B7
:1028800022F003024A60416D41F0100141650121CF
:1028900080F85110FEF7BEFE10BD10B5806BFFF73B
:1028A00091F910BD10B5806BFFF72FFB10BD10B56F
:1028B000806BFFF72CFB10BD70B50546846BFEF7EF
:1028C00021F9024628680068C00526D420684168BE
:1028D00021F020014160A06818B96068B0F5827FDE
:1028E00016D02068416821F0010141606421204632
:1028F00000F076F808B1202060650020E087012014
:1029000084F85100606D40B12046FEF783FE70BD33
:102910002068416821F00301E7E72046FFF72EF920
:1029200070BD38B50546846BFEF7ECF802462868A2
:102930000068C00523D42068416821F0200141606F
:102940002068416821F0020141606421204600F0C6
:1029500075F818B1606D40F020006065A068002136
:1029600018B92068C26880680090E186012084F868
:102970005100606D18B12046FEF74CFE38BD204670
:10298000FFF7C2FA38BD70B50546846BFEF7BAF89A
:10299000024628680068C0051ED42068416821F0FE
:1029A000200141606421204600F048F818B1606DB4
:1029B00040F0200060652068416821F0030141601B
:1029C0000020E086E087012084F85100606D18B196
:1029D0002046FEF71FFE70BD2046FFF797FA70BD38
:1029E000F8B5044640684FF48273984221D1A0683C
:1029F0004FF48065B0F5004F01D0A8420AD120689D
:102A0000066826F0400606606068984211D1A0680A
:102A1000A8420ED000920B4600228021204600F0F2
:102A200043F8002804D0606D40F02000606503206A
:102A3000F8BD00920B4600220121EFE7F8B51546DC
:102A40000E460B46009204460122022100F02CF8AB
:102A5000A0B9134813490068B0FBF1F04FF47A7144
:102A6000484300906068B0F5827F0DD13346002264
:102A700080212046009500F017F870B1606D40F09D
:102A8000200060650320F8BD009830B1401E009022
:102A900020688068C0430006F6D50020F8BD00001D
:102AA0001C00002000366E012DE9F8431E469146B9
:102AB00088460446089DFEF725F8401B351AFEF7A8
:102AC00021F8074625480068C0F3CB30684338E05A
:102AD000701C37D0FEF716F8C01BA84203D215B100
:102AE000009860B32CE02068416821F0E00141606B
:102AF0006068B0F5827F0BD1A068B0F5004F02D0BE
:102B0000B0F5806F04D12068016821F040010160B8
:102B1000A06AB0F5005F09D12068016821F4005176
:102B200001602068016841F400510160012084F8CF
:102B30005100002084F850000320BDE8F8830025F0
:102B4000401E00902068816838EA010004D000210E
:102B50004945BDD10020F0E70121F9E71C00002024
:102B60007047FEF7E7B8000030B593B030216846F3
:102B7000FDF7F9FB14210CA8FDF7F5FB1B48002518
:102B8000016841F080510160006800F080501190B0
:102B90001748016841F4404101600068022400F4D4
:102BA0004040119001200090000401908001CDE987
:102BB000064019200890A820CDE9090404200B90B4
:102BC0006846FEF7E7FA60B90CA90F2081E83100EA
:102BD000E002CDE90F0502210CA8FEF7EFF900286D
:102BE00001D0FDF7A3FC13B030BD00004038024017
:102BF000007000400248016841F4700101607047B4
:102C000088ED00E010B5806B0021C185C184FFF71D
:102C100094F910BD01680C3151E8002F22F4907234
:102C200041E80023002BF5D10168143151E8002F51
:102C300022F0010241E80023002BF5D1016B0129AC
:102C400009D101680C3151E8002F22F0100241E84F
:102C50000023002BF5D1202180F8421000210163D0
:102C6000704708B590F84210222901D0022008BD13
:102C700082684FF480539A4201D1016921B1816A7F
:102C80009A421BD04AB10AE00268816A5268C2F3D4
:102C900008020A80816A891C08E0026972B1026830
:102CA000526802F07F020A70816A491C8162C18DFC
:102CB000491E0904090CC18503D01BE00268526853
:102CC000F1E70168CA6822F02002CA600168CA6898
:102CD00022F48072CA6001684A6922F001024A61E6
:102CE000202180F8421000214163026B012A03D0A9
:102CF000FFF710FB002008BD016301680C3151E8AB
:102D0000002F22F0100241E80023002BF5D10168CA
:102D10000A68D20602D50A6849680091818DFFF7DA
:102D20000BF9E7E770B5044600680169E26821F431
:102D30004051114301612169A068E269084361695A
:102D4000114308432168CA6849F20C639A4302435D
:102D5000CA6020684169A26921F440711143416150
:102D600031492068884202D03049884202D1FEF7BA
:102D7000CFF901E0FEF7BCF9E269002319216425CF
:102D80003226B2F5004F626828D0A0FB0101930FF4
:102D90009200FDF771FA0146B0FBF5F06FF01802F2
:102DA000504301EB800006EB0010B0FBF5F000F0A3
:102DB000F002B1FBF5F002EB0012B1FBF5F06FF0A1
:102DC0001803584301EB800006EB0010B0FBF5F050
:102DD00000F00F0021681044886070BDA0FB010165
:102DE00092185B41FDF748FA0146B0FBF5F002018D
:102DF000B1FBF5F06FF01803584301EB800006EBD0
:102E0000C000B0FBF5F000F0F80002EB4002B1FBAF
:102E1000F5F0584301EB800006EBC000B0FBF5F085
:102E200000F00700D6E70000001001400014014048
:102E300081628285C28500214164222180F842108E
:102E4000016921B10168CA6842F48072CA600168F0
:102E50004A6942F001024A610068C16841F02001FC
:102E6000C160002070472DE9F843984617460D468B
:102E70000446089E24E0701C22D0FDF743FEA0EB20
:102E80000800B0421AD8CEB12068C168490717D5EA
:102E9000802D15D0402D13D00168C94309070FD4E8
:102EA00001680025406800902046FFF7B3FE082027
:102EB000606484F840500120BDE8F8830320FBE7FC
:102EC0002068006835EA000004D00020B842D2D063
:102ED0000020F1E70120F9E70148FFF72FB80000D3
:102EE00008020020FEE70907090E002804DB00F1B4
:102EF000E02080F80014704700F00F0000F1E0209F
:102F000080F8141D70470000FDF71CFFFFF72CFE32
:102F1000FFF758FBFFF708FBFFF7E4FBFFF706FCA2
:102F2000FFF722FCFFF73EFC3C483B4900240160D0
:102F30004FF4E131C0E901140C21C460C0E904413F
:102F40008461C461FFF732F978B9FFF7ADFB35480A
:102F50003349C0E900147F218160FF21C0E90314D7
:102F600044618461FEF7CCFA08B1FDF7DFFA4FF651
:102F7000FF76334612222CA12848FFF783FA03225A
:102F80002E492648FFF7B8F92648332168382C4DDA
:102F900001703D2141708170C17044210171012295
:102FA00010212846FDF7A8FD244CDFF89880083C46
:102FB0004FF400572078F8B9002210212846FDF779
:102FC0009BFDA088174982B2683901F18800FEF79D
:102FD00035FFA088134982B2334668390F48FFF79E
:102FE00051FA3346022214A10C48FFF74BFA012292
:102FF00010212846FDF780FD39464046FDF774FD57
:103000002078022805D04FF47A7000BFFDF76AFCE3
:10301000D0E76420FAE70000001001400802002019
:103020000028004088000020756172742D3E5350C6
:10303000492076302E312E310D0A00000800002084
:1030400000000240000802404FF04070E1EE100A1C
:103050007047000610160006101600000000000061
:103060000000010203040607080900000000010235
:10307000030400009430000800000020200000003D
:10308000D4010008B430000820000020300B0000FC
:10309000F001000801000000050000000000000031
:1030A000000000000100000010000000000000000F
:0430B0000024F40004
:040000050800019955
:00000001FF
